:020000040800F2
:10000000000008200D3A0108AD070008AF070008FE
:10001000B1070008B3070008B5070008000000009A
:100020000000000000000000000000005D3A010830
:10003000B7070008000000005D3A0108B907000892
:100040005D3A01085D3A01085D3A01085D3A010830
:100050005D3A01085D3A01085D3A01085D3A010820
:100060005D3A01085D3A01085D3A01085D3A010810
:100070005D3A01085D3A01085D3A01085D3A010800
:100080005D3A01085D3A01085D3A01085D3A0108F0
:100090005D3A01085D3A01085D3A01085D3A0108E0
:1000A0005D3A0108C10700085D3A01085D3A0108A0
:1000B0005D3A01085D3A01085D3A01085D3A0108C0
:1000C0005D3A01085D3A01085D3A01085D3A0108B0
:1000D0005D3A01085D3A01085D3A01085D3A0108A0
:1000E0005D3A01085D3A01085D3A01085D3A010890
:1000F0005D3A01085D3A01085D3A01085D3A010880
:100100005D3A01085D3A01085D3A01085D3A01086F
:100110005D3A01085D3A01085D3A01085D3A01085F
:100120005D3A01085D3A01085D3A01085D3A01084F
:100130005D3A01085D3A01085D3A01085D3A01083F
:100140005D3A01085D3A01085D3A01085D3A01082F
:100150005D3A01085D3A01085D3A01085D3A01081F
:100160005D3A01085D3A01085D3A01085D3A01080F
:100170005D3A0108D10700085D3A0108000000005F
:100180005D3A01085D3A01085D3A01085D3A0108EF
:100190005D3A01085D3A01085D3A01085D3A0108DF
:1001A0005D3A01085D3A01085D3A01085D3A0108CF
:1001B0005D3A01085D3A01085D3A01085D3A0108BF
:1001C0005D3A01085D3A01085D3A01085D3A0108AF
:1001D0005D3A01085D3A01085D3A01085D3A01089F
:1001E0005D3A01085D3A01085D3A01085D3A01088F
:0801F0005D3A01085D3A0108C7
:1002000010B5054C237833B9044B13B10448AFF350
:1002100000800123237010BDCC09002000000000E5
:100220007454010808B5034B1BB103490348AFF3ED
:10023000008008BD00000000D009002074540108AF
:1002400008B5024813F088FF08BD00BFC05401087C
:1002500010B50EF013FB0EF0EDFA0124204610F05D
:10026000ACFFFBE700B5B9B0394B1A6C42F08052D5
:100270001A641B6C03F080530093009B354B1A6883
:1002800042F440421A601B6803F440430193019B0F
:1002900003232B934FF480332C9301232E931023AD
:1002A0002F93022331934FF480023292192233921A
:1002B0004FF4C872349235930C2336932BA80CF06C
:1002C0003FF9002840D10EF06FF800283DD10F23F0
:1002D000269302232793002328934FF4E053299376
:1002E0004FF4C0532A93062126A80CF0C7FB68BB25
:1002F000194B0293C0230793022309930823089301
:1003000000230A9301220C920D9311934FF40032B3
:100310001B9221932493239302A80CF01FFDB0B9E4
:100320000CF060FC0D4BA3FB0030800902F07EFB5B
:10033000042002F049FC00220F214FF0FF3002F0B0
:1003400019FB39B05DF804FBFEE7FEE7FEE7FEE7C8
:1003500000380240007000400040280CD34D62106D
:100360002DE9F04194B00EF085F9FFF77BFFBC4B0F
:100370001A6B42F010021A631A6B02F0100201921B
:10038000019A1A6B42F002021A631A6B02F002021F
:100390000292029A1A6B42F008021A631A6B02F078
:1003A00008020392039A1A6B42F400721A631A6BE2
:1003B00002F400720492049A1A6B42F004021A6367
:1003C0001A6B02F004020592059A1A6B42F00102C0
:1003D0001A631A6B02F001020692069A1A6B42F037
:1003E00040021A631A6B02F040020792079A1A6BD6
:1003F00042F480721A631A6B02F480720892089AAF
:100400001A6B42F080021A631B6B03F0800309939E
:10041000099B944F002242F2200138460DF07EFBEA
:10042000914E00224FF4805130460DF077FB42F29E
:1004300020030A9301250B9500240C940D940AA91E
:1004400038460DF0D5F94FF48058CDF828800B943C
:100450000C940AA938460DF0CBF9CDF828800B95FD
:100460000C940D940AA930460DF0C2F94FF40043E4
:100470000A930B940C940AA97C480DF0B9F90A95DB
:100480000B940C940AA930460DF0B2F97848794BD8
:10049000036044608460046144618461764BC3619D
:1004A000C46044628462C4622B462246042106F082
:1004B00069F9002840F0CA806D48704BC0F884305C
:1004C0000323C0F888300123C0F88C300021C0F825
:1004D0009410C0F89C10C0F89010C0F8A810C0F894
:1004E000AC10C0F8B01002230A46843006F04AF976
:1004F000002840F0AC805E48614BC0F80831614B89
:10050000C0F80C310023C0F810310122C0F81421CA
:10051000C0F81831C0F81C31C0F82031C0F82431BF
:10052000C0F8283100F5847003F024FE002840F064
:100530008F800021544805F03DFF002840F089805D
:100540000021514805F064FF002840F083804848AE
:100550004E4BC0F85431012280F858210023C0F8D6
:100560005C310221C0F86011C0F86431C0F8683114
:10057000C0F86C31C0F870310421C0F87411C0F8B3
:100580007831C0F87C21C0F88031C0F8843100F5A2
:10059000AA7002F027FC00285DD135483C4BC0F81A
:1005A0008C31012280F890210023C0F8943102217F
:1005B000C0F89811C0F89C31C0F8A031C0F8A4313F
:1005C000C0F8A8310421C0F8AC11C0F8B031C0F8AF
:1005D000B421C0F8B831C0F8BC3100F5C67002F0E3
:1005E00001FC002838D122482A4BC0F8C43100232E
:1005F000C0F8C831C0F8CC31C0F8D031C0F8D4311F
:10060000C0F8D831C0F8DC3100F5E27008F012FA19
:1006100018BB4FF40061204808F035FAF0B90FAC70
:100620001E4D0FCD0FC42B68236000210FA810F0C2
:1006300078FD0F4BC3F8440210F05CFD184C2046C7
:1006400013F08AFD0AA8FFF7FBFDF8E7FEE7FEE7D7
:10065000FEE7FEE7FEE7FEE7FEE7FEE7FEE700BF98
:100660000038024000240240000002400020024006
:10067000E80900200458014000EE0200245801401F
:10068000005400405B3D3000F00A0020207401401F
:10069000A0740140001C0140AC0B00208C540108E8
:1006A000D454010808B50268034B9A4200D008BD33
:1006B0000DF0EBFFFBE700BF00000140FEE700BFCD
:1006C00010B40F4AD2F8883043F47003C2F888306F
:1006D0000C4B196841F001011960002098601C68FA
:1006E00009492140196009495960196821F480219C
:1006F0001960D8604FF0006393605DF8044B704759
:1007000000ED00E000380240FFFFF6FE103000244C
:10071000214B9B6803F00C03042B14D0082B16D03C
:100720001BB11E4B1E4A1A6002E01C4B1C4A1A6089
:10073000194B9B68194AC3F303131A49C95C136820
:10074000CB4013607047154B174A1A60F0E7124B05
:1007500059685A6802F03F0211F4800F12D05968AC
:10076000C1F38811104BB3FBF2F303FB01F30A4A08
:100770005268C2F3014201325200B3FBF2F3074A5E
:100780001360D5E7044B5968C1F38811044BB3FBE0
:10079000F2F303FB01F3EAE7003802400000002017
:1007A0000024F400A054010840787D017047FEE762
:1007B000FEE7FEE7FEE7704708B510F0FFFF08BD53
:1007C00008B5024809F013F808BD00BF380C002036
:1007D00008B5024800F0ECFA08BD00BFB0250020C3
:1007E00000B583B0214B1A6C42F080521A641A6C27
:1007F00002F080520092009A5A6C42F480425A648D
:100800005B6C03F480430193019B032002F0A0F88A
:10081000002211466FF00B0002F0ACF800221146E6
:100820006FF00A0002F0A6F8002211466FF00900EE
:1008300002F0A0F8002211466FF0040002F09AF8CE
:10084000002211466FF0030002F094F800220F21FD
:100850006FF0010002F08EF800220F214FF0FF3000
:1008600002F088F803B05DF804FB00BF00380240D6
:10087000144B1B6803B1704770B586B0124B5A6CAD
:1008800042F000525A645B6C03F000530093009BEB
:1008900040F6080301930226029600240394049470
:1008A0000325059501A909480CF0A2FF082301932F
:1008B000029603940494059501A905480CF098FF4D
:1008C00006B070BD300C0020003802400008024025
:1008D000000C024008B50A4A1368013B136003B1DB
:1008E00008BD084A536C23F00053536440F60801D6
:1008F00005480DF06BF8082104480DF067F8EFE7A4
:10090000300C00200038024000080240000C024079
:100910000268114B9A4200D0704700B587B0C023DF
:1009200001931223029301230393032304930423CB
:1009300005930DEB030109480CF05AFF084B1A6CA4
:1009400042F400121A641B6C03F400130093009B22
:1009500007B05DF804FB00BF0054004000040240F3
:100960000038024008B50268064B9A4200D008BD24
:10097000054A136C23F400131364C02103480DF0DF
:1009800025F8F4E70054004000380240000402401B
:1009900002681B4B9A4200D07047F0B587B003F550
:1009A0008E335A6C42F080025A645B6C03F0800311
:1009B0000093009B182301930226029600250395BD
:1009C000032404940A23059301A90E480CF010FF98
:1009D000C02301930296039504940B27059701A960
:1009E00009480CF005FF4FF4C0630193029603958C
:1009F0000494059701A905480CF0FAFE07B0F0BD74
:100A0000001C014000040240000C0240001802409B
:100A100008B502680B4B9A4200D008BD0A4A536CD5
:100A200023F080035364182108480CF0CFFFC02145
:100A300007480CF0CBFF4FF4C06106480CF0C6FF2E
:100A4000EBE700BF001C01400038024000040240F8
:100A5000000C024000180240F0B589B0044602685C
:100A6000274B9A4205D02268264B9A4229D009B0DA
:100A7000F0BD254B5B684BB9244A516C41F48001B1
:100A80005164526C02F480020192019A01331E4AB1
:100A9000536070230393022704970025059506955C
:100AA0000626079603A91A480CF0A2FE802303939A
:100AB000049705950695079603A916480CF098FE2D
:100AC000D1E7114B5B684BB9104A516C41F480017E
:100AD0005164526C02F480020292029A01330A4A73
:100AE0005360082303930223049300230593069382
:100AF0000623079303A906480CF07AFEB7E700BF68
:100B00000458014024580140300C002000380240B5
:100B1000001002400018024010B504460268154B50
:100B20009A4204D02268144B9A4213D010BD134A43
:100B30005368013B536023B9114A536C23F480037B
:100B4000536470210F480CF041FF80210E480CF0D7
:100B50003DFFE7E7094A5368013B536023B9084A60
:100B6000536C23F480035364082106480CF02EFFD5
:100B7000DCE700BF0458014024580140300C00203D
:100B800000380240001002400018024000B589B051
:100B900000220146192001F0EDFE192001F01AFF94
:100BA000154B5A6C42F001025A645B6C03F001036E
:100BB0000193019B02A903A80CF0A0F80CF028F8FF
:100BC0000E4B0F4A1A6040F2E732DA6040000D4ADD
:100BD000A2FB0020800C0138586000221A619A6044
:100BE000184608F05DFF18B1012009B05DF804FB5C
:100BF000024808F087FAF8E700380240380C002075
:100C00000000014083DE1B43034B1A68D36823F0C6
:100C10000103D360704700BF380C0020034B1A68F3
:100C2000D36843F00103D360704700BF380C002045
:100C30007047002870D0F0B58BB0054690F8BD33F2
:100C4000002B60D0032385F8BD33286800F0A2FE96
:100C50002C4654F8107B6E460FCC0FC60FCC0FC637
:100C600094E8030086E803002B1D0ECB384600F005
:100C70004DFE0021286800F093FE2A462B460021F5
:100C800001200C4683F83D0083F83C10A3F8421085
:100C900083F83F405C649C641C6501311C330F2960
:100CA000F0D100210B4682F8FD3182F8FC1182F868
:100CB000FF31C2F80432C2F80832C2F810320131F2
:100CC0001C320F29EFD12C4654F8107B6E460FCC06
:100CD0000FC60FCC0FC694E8030086E803002B1D57
:100CE0000ECB384600F09DFE002385F838300123F6
:100CF00085F8BD336B6A012B0AD0286801F0BAFA77
:100D000000200BB0F0BD80F8BC330DF05FFE99E71A
:100D1000284600F0BCFDF0E701207047704790F8CE
:100D2000BC33012B0ED010B50446012380F8BC3330
:100D3000006801F093FA206800F026FE002084F895
:100D4000BC0310BD0220704790F8BC33012B11D0BA
:100D500010B50446012380F8BC33006800F01AFE89
:100D6000206801F04DFA206801F084FA002084F830
:100D7000BC0310BD0220704768B110B504460323C0
:100D800080F8BD33FFF7E0FF20460DF089FE00201C
:100D900084F8BD0310BD012070477047704770474D
:100DA000704770477047704770477047704770478B
:100DB0002DE9F04F87B00446056802952E6C284651
:100DC00001F099FA10B107B0BDE8F08F206801F08A
:100DD0005DFA0028F7D0206801F058FA10F0020FF1
:100DE00004D02268536903F002035361206801F0C4
:100DF0004DFA10F4002F40F092800027206801F097
:100E000045FA10F4802F40F03081206801F03EFA5E
:100E10000028C0F2EA81206801F038FA10F4006F6F
:100E20000AD0D5F8083813F0010F40F0F881226895
:100E3000536903F400635361206801F027FA10F04E
:100E4000006F15D02268536903F00063536194F872
:100E5000F033002B40F0E781012184F8F013236880
:100E60005B6DC3F38303C4F8F43320460DF0A5FF94
:100E7000206801F00BFA10F4805F40F0DD812068FB
:100E800001F004FA10F4005F40F02482206801F0C1
:100E9000FDF910F0100F14D02268936923F01003AD
:100EA00093612E6A06F00F08C6F34343022B00F04D
:100EB0009B82062B00F0B8822268936943F01003EE
:100EC0009361206801F0E2F910F0080F40F0C08251
:100ED000206801F0DBF910F4801F40F0C282206826
:100EE00001F0D4F910F4001F40F0C582206801F031
:100EF000CDF910F0804F40F0C882206801F0C6F9AB
:100F000010F0040F3FF45FAF23685D6815F0040F25
:100F100040F0C482226853682B43536053E7206833
:100F200001F0B8F98046002800F09D800027029B60
:100F300003F5306ADFF8FCB203952EE0294620461F
:100F40000DF0ECFD03E0294620460DF0E7FD236996
:100F5000012B01D1002F5DD019F0080F0BD05E4599
:100F600067D0B34B9E426ED820460DF0CFFD0AEB02
:100F7000471308229A6019F0100F03D00AEB4713A9
:100F800010229A6019F0200F03D00AEB4713202299
:100F90009A6001375FEA580863D018F0010FF8D063
:100FA000FDB22946206801F085F9814610F0010F55
:100FB000D2D00AEB471301229A609D4A96420AD981
:100FC0002269012A1BD1DAF8082012F4004F05D05B
:100FD0004FF400429A602269012A10D1C7EBC70280
:100FE00004EB8202D2F804021969C1F31201411A1A
:100FF000C2F81412D2F808120144C2F808125E4571
:10100000A1D1DAF8082012F4004F97D04FF4004233
:101010009A609CE7C7EBC70304EB8303D3F8103255
:10102000002B99D104F570720121206801F084F938
:1010300092E7DAF8083013F4004F04D00AEB4713B4
:101040004FF400429A602369012B8DD1DAF8083001
:1010500013F4004F88D00AEB47134FF400429A6014
:1010600082E7039DCAE60027C8E6206801F01AF966
:101070008146002800F0B780A2460027029B03F5B6
:10108000106305951D462CE0DAF84830DAF8442064
:101090001344CAF8483044E016F0080F03D005EBBB
:1010A000471308229A6016F0100F03D005EB471380
:1010B00010229A6016F0400F03D005EB4713402230
:1010C0009A6016F0020F03D005EB471302229A60D4
:1010D00016F0800F39D101370AF11C0A5FEA59096D
:1010E0007FD019F0010FF6D0FBB2039319462068A8
:1010F00001F0E9F8064610F0010FCDD0029B03F590
:101100000061D3F8343807F00F02012000FA02F230
:1011100023EA02034B6305EB47139860236983427C
:10112000B2D0039920460DF005FD2369012BB3D100
:10113000002FB1D1DAF85030002BADD104F5707228
:101140000121206801F0F8F8A6E721680491D04653
:10115000DAF85030DAF854001E1ADAF844209642D1
:1011600028BF164601F5106B0BEB471BDBF8182068
:10117000F11C92B2B2EB910F27D933B3834224D939
:10118000181AD8F84460864228BF0646237C00938C
:10119000B3B2039AD8F84810049800F0C7FED8F804
:1011A00048303344C8F84830D8F854003044C8F8C0
:1011B0005400DBF818309BB2F21CB3EB920F04D949
:1011C000D8F850300BB18342DAD8002E83D1049B7B
:1011D000D3F834280121B94022EA0102C3F83428A7
:1011E00079E7059D11E600270FE6D5F8043823F0CE
:1011F0000103C5F8043894F8F033012B08D02046D9
:101200000DF0D0FC2268536903F00043536102E6FD
:10121000002184F8F01320460DF0CFFDF2E72046C0
:101220000DF0A8FC03E620460DF0A4FC20E600BF6C
:101230000A30544F0A31544F05F50066736823F0A5
:10124000010373601021206800F0C2FB6368B3B132
:1012500005F5106300214FF67F3098601A6822F47C
:1012600000121A60C3F80802D3F8002222F4001218
:10127000C3F800220131203362688A42EDD8F36955
:1012800043F00113F361236BDBB1D6F8843043F0F4
:101290000B03C6F88430736C43F00B037364D5F80A
:1012A000003823F4FE63C5F8003804F57072217C21
:1012B000206801F041F82268536903F480535361B8
:1012C000DDE5736943F02B037361336943F00B036E
:1012D0003361E4E7206801F012F82268D36823F450
:1012E0007053D360206800F07FFC90B90023E36066
:1012F0004FF4007363612268D36843F41053D360E2
:1013000020460DF028FC2268536903F40053536112
:10131000BCE50323E360402363610BF063FC614B96
:101320000344614A934205D82268D36843F470535A
:10133000D360E5E75D4B03445D4A934205D82268DC
:10134000D36843F46053D360DAE75A4B03445A4AF4
:10135000934205D82268D36843F45053D360CFE753
:10136000564B0344564A934205D82268D36843F447
:101370004053D360C4E7534B0344534A934205D8C8
:101380002268D36843F43053D360B9E74F4B03442A
:101390004F4A934205D82268D36843F42053D36060
:1013A000AEE74C4B03444C4A934205D82268D368BD
:1013B00043F41053D360A3E7484B0344484A934295
:1013C00005D82268D36843F40053D36098E7454BAF
:1013D0000344454A93422268D36894BF43F4E053E0
:1013E00043F4C053D3608BE747F6F0731E423FF4DB
:1013F00063AD36094FEAC80AAAEB080904EB89096C
:10140000C6F30A02D9F80812284600F089FEC6F38E
:101410000A06D9F808323344C9F80832D9F8143228
:101420001E44C9F8146247E5082204F57071284685
:1014300000F076FE4FEAC802A2EB080104EB81013E
:10144000C6F30A13D1F814221344C1F8143233E559
:1014500020460DF07AFB2268536903F008035361BC
:1014600036E5F9B220460DF0A9FB2268536903F472
:101470008013536133E5F9B220460DF099FB2268E1
:10148000536903F40013536130E520460DF09CFBD3
:101490002268536903F0804353612EE520460DF026
:1014A00099FB37E5405327FFFF340C00401E1BFF1C
:1014B0003F420F0000DC0BFF7F4F1200808CF9FED3
:1014C0001FD6130060B6E5FE5FE3160000D3CEFE24
:1014D0003F771B00C05BB3FEBF91210000CA91FEA5
:1014E0001F753800E05459FEDF9C410090F8BC3372
:1014F000012B0BD010B50446012380F8BC330068E3
:1015000000F0ACFE002084F8BC0310BD0220704740
:1015100090F8BC33012B0BD010B50446012380F8A2
:10152000BC33006800F0A6FE002084F8BC0310BDA8
:101530000220704790F8BC33012B0DD010B5044643
:10154000012380F8BC3380F83810006800F076FE84
:10155000002084F8BC0310BD02207047F8B511F0DC
:10156000800F27D101F00F07FE00F41B00EB84046D
:1015700004F5FE74F61B00EB8606002586F8FD5187
:1015800001F00F012170A260E370627802B1E18086
:10159000022B1DD090F8BC33012B1CD00546012333
:1015A00080F8BC332146006800F031FB002085F84C
:1015B000BC03F8BD01F00F06F500AC1B00EB840482
:1015C0003C34AD1B00EB8505012685F83D60D7E76F
:1015D00000232371DEE70220EBE710B511F0800F46
:1015E00020D101F00F04E200131B00EB830303F58D
:1015F000FE73121B00EB8202002482F8FD4101F011
:101600000F01197090F8BC23012A19D00446012259
:1016100080F8BC231946006800F090FB002084F895
:10162000BC0310BD01F00F04E200131B00EB8303A9
:101630003C33121B00EB8202012482F83D40DEE7BE
:101640000220EEE738B501F00F05EC00611B00EB5E
:10165000810101F5FE71641B00EB8404C4F80822CB
:10166000C4F810320023C4F8143284F8FD3184F831
:10167000FC510369012B06D065B1DAB2006800F0B5
:101680006BFC002038BDC5EBC50400EB8404C4F836
:101690000C22F1E7DAB2006800F0C7FBF1E701F0D5
:1016A0000F01C1EBC10100EB8101B1F814027047D9
:1016B00038B501F00F05EC00611B00EB81013C31F6
:1016C000641B00EB8404A26423650023636501238B
:1016D00084F83D3084F83C500369012B06D05DB19D
:1016E000DAB2006800F038FC002038BDC5EBC50454
:1016F00000EB8404E264F2E7DAB2006800F095FBE4
:10170000F2E738B501F00F0543689D4235D811F076
:10171000800F1FD1CA00531A00EB830303F5FE7339
:10172000511A00EB8101002281F8FD2101229A70FB
:101730001D7090F8BC23012A21D00446012280F8B4
:10174000BC231946006800F0FFFC7DB1002084F83E
:10175000BC0313E0EA00531B00EB83033C33521B32
:1017600000EB8202012182F83D10DFE704F5707280
:10177000217C206800F0E0FDE8E7012038BD022070
:10178000FCE701F00F03426893422DD810B511F029
:10179000800F1DD1DA00D11A00EB810101F5FE7135
:1017A000D21A00EB8202002482F8FD4100228A70E6
:1017B0000B7090F8BC33012B18D00446012380F83D
:1017C000BC33006800F0EEFC002084F8BC0310BDC0
:1017D000DA00D11A00EB81013C31D21A00EB82020F
:1017E000012482F83D40E1E7012070470220EEE746
:1017F00090F8BC33012B14D010B50446012380F8B7
:10180000BC3311F0800F06D1006800F0F3F800201F
:1018100084F8BC0310BD01F00F01006800F0D8F897
:10182000F5E70220704708B5006801F07CF808BDB4
:1018300008B5006801F084F808BD90F8BD03704752
:1018400030B405686C6AD1B10B46A96A04EB114447
:10185000591E0BD0002303F1400005EB80004068C7
:1018600004EB10440133DBB28B42F4D344EA02446C
:10187000403105EB81056C60002030BC704744EAC4
:101880000244AC62F8E703685962002070470246E0
:1018900003680121C0F8F813002082F8F0039A6968
:1018A00042F000629A61596D014A0A435A657047D5
:1018B0000300001003680021C0F8F8139A6922F0B1
:1018C00000629A61586D024A02405A6508467047A4
:1018D000FCFFFFEF704770470B4B0269002A03DBE8
:1018E000013BFAD103207047036943F00103036110
:1018F000054B026912F0010F03D0013BF9D103201F
:1019000070470020704700BF400D030084B010B541
:10191000044603A880E80E00089B012B1ED1A36B90
:1019200023F48033A363E268164B1340E360E3685B
:1019300023F44013E3600F9B012B0AD02046FFF7EE
:10194000CBFF069B012B14D00020BDE8104004B053
:101950007047E36843F48013E360EFE7E36843F024
:101960004003E3602046FFF7B7FF4FF48033A363E3
:10197000E7E7A36843F00603A360A36843F02003EE
:10198000A360E1E7BFFFBDFF836843F0010383600D
:1019900000207047836823F00103836000207047B4
:1019A00008B5C36823F0C043C360012909D069B9F1
:1019B000C36843F08043C36032200CF093FE0020E4
:1019C00008BDC36843F00053C360F5E70120F7E7A3
:1019D000890141F020010161054B026912F0200FDD
:1019E00003D0013BF9D1032070470020704700BFAE
:1019F000400D030010230361054B026912F0100F24
:101A000003D0013BF9D1032070470020704700BF8D
:101A1000400D0300D0F800381943C0F8001800202A
:101A2000704784B02DE9F047044609A880E80E000D
:101A30000F46DDF82CC00C9E0E98139D002319460E
:101A400003F1400204EB8202516001330F2BF7D106
:101A5000A36B43F40013A3635DB9A36B23F40013DA
:101A6000A363236843F040032360236843F08003AB
:101A700023600023C4F8003E04F50068D4F8003861
:101A8000C4F80038012809D0032819D1BCF1000F8F
:101A900011D100212046FFF7BDFF15E0BCF1000F7A
:101AA00004D100212046FFF7B5FF0DE001212046BB
:101AB000FFF7B0FF08E001212046FFF7ABFF03E08E
:101AC00003212046FFF7A6FF10212046FFF780FFE5
:101AD0002046FFF78FFF0023C8F81030C8F81430F5
:101AE000C8F81C30002F3FD004F510630022944644
:101AF0004FF090494FF0006A4FF67F3E0AE082B106
:101B0000C3F80090C1F810C0C1F808E001322033DA
:101B1000BA4209D0194618680028F0DBC3F800C0A3
:101B2000F0E7C3F800A0EDE704F5306300218C4630
:101B30004FF090494FF0006A4FF67F3E0AE081B1C6
:101B4000C3F80090C0F810C0C0F808E0013120339D
:101B50008A4209D018461F68002FF0DBC3F800C086
:101B6000F0E7C3F800A0EDE7D8F8103023F4807355
:101B7000C8F81030012E1AD00023A3616FF0804303
:101B800063611EB9A36943F01003A361A269124BFC
:101B90001343A3610F9B1BB1A36943F00803A36127
:101BA000012D13D00020BDE8F04704B070470B4B67
:101BB000C8F83030D8F83020094B1343C8F830301B
:101BC0000023A3616FF080436361DFE7A269054BE7
:101BD0001343A361E6E700BF00383C8000018000AA
:101BE0000300010004000040D0F8083800F5006050
:101BF00013F0060207D013F0020F06D1042A0CBF1F
:101C0000022000207047002070470320704770B406
:101C10000A784B78012B20D0D0F81C5802F00F0620
:101C20004FF48033B3402B43C0F81C3800EB421014
:101C3000D0F8003B13F4004F0CD1D0F8004B8A6869
:101C4000C2F30A02154B1343CA7843EA8243234383
:101C5000C0F8003B002070BC7047D0F81C5802F060
:101C60000F06B3409BB22B43C0F81C3800EB421068
:101C7000D0F8003913F4004FECD1D0F800598B683C
:101C8000C3F30A04054B2343C97843EA814343EA7B
:101C900082522A43C0F80029DCE700BF0080001010
:101CA00070B40A784B78012B23D000EB4214D4F89F
:101CB000003B13F4004F0ED1D4F8005B8B68C3F3E4
:101CC0000A0343F40043CE7843EA864343EA82534F
:101CD0002B43C4F8003BD0F83C480B7803F00F02CC
:101CE0004FF4803393402343C0F83C38002070BC4D
:101CF000704700EB4214D4F8003913F4004F0ED1B2
:101D0000D4F800698D68C5F30A050B4B2B43CD78D9
:101D100043EA854343EA82533343C4F80039D0F899
:101D20003C480B7803F00F02012393409BB22343FE
:101D3000C0F83C38DAE700BF0080001070B40B78C0
:101D40004A78012A1FD0D0F83C5803F00F0601242E
:101D500004FA06F625EA0645C0F83C58D0F81C58A7
:101D6000097801F00F018C4025EA0444C0F81C48B2
:101D700000EB4310D0F8002B124B1340C0F8003B8F
:101D8000002070BC7047D0F83C6803F00F0402FAE2
:101D900004F4A4B226EA0404C0F83C48D0F81C4875
:101DA000097801F00F018A4092B224EA0202C0F8D9
:101DB0001C2800EB4310D0F80039034A1A40C0F841
:101DC0000029DDE70078F3EF007833EC0B784A78F0
:101DD000012A15D000EB4313D3F8002B22F4004264
:101DE000C3F8002BD0F81C380A7802F00F014FF42A
:101DF00080328A4023EA0203C0F81C380020704772
:101E000000EB4313D3F8002922F40042C3F8002961
:101E1000D0F81C280B7803F00F0101238B409BB2F4
:101E200022EA0303C0F81C38E8E770B40B784C785A
:101E3000012C24D000EB431000F530631D69394CB0
:101E40002C401C611D69384C2C401C614C690CB144
:101E50008C684C611C6944F400241C611D698C6809
:101E6000C4F312042C431C61012A57D0D0F8003B64
:101E700043F00443C0F8003B002070BC70474C693D
:101E800054BB00EB4314D4F81069274D3540C4F817
:101E90001059D4F8105945F40025C4F81059D4F855
:101EA0001069204D3540C4F81059012A30D04A69D4
:101EB0004AB1D0F834580A7802F00F0101228A4062
:101EC0002A43C0F8342800EB4310D0F8002942F030
:101ED0000442C0F80029CFE700EB431404F5106476
:101EE0002669104D3540256126690F4D3540256125
:101EF0008D684E69AE4288BF4D61256945F4002565
:101F0000256126694D69C5F3120535432561CCE786
:101F100000EB43120969C2F81419D4E7CA685A6180
:101F2000A4E700BF0000F8FFFFFF07E010B49DF832
:101F300004406CB9DC1CA4080AD000EB023000F5A8
:101F40008050002351F8042B026001339C42F9D1E8
:101F500000205DF8044B7047F0B583B00B784C78E7
:101F6000012C29D000EB431303F530642669694D39
:101F7000354025612669684D354025614D69002D44
:101F800040F0A28026698D68C5F3120535432561AE
:101F9000256945F400252561012A00F0AA80CA7848
:101FA000012A00F0A980D3F8002B42F00442C3F8C4
:101FB000002B002003B0F0BD4C6944BB00EB431480
:101FC000D4F81069544D3540C4F81059D4F810595C
:101FD00045F40025C4F81059D4F810694D4D35402A
:101FE000C4F81059012A53D0CC78012C3AD1D0F83A
:101FF000084814F4807F00EB4315D5F800490CBF66
:1020000044F0005444F08054C5F8004948E000EB27
:102010004314D4F810693F4D3540C4F81059D4F832
:1020200010693D4D3540C4F81059D4F810798E68C8
:102030004D693544013DB5FBF6F5384E06EAC54518
:102040003D43C4F81059D4F810694D69C5F3120521
:102050003543C4F8105904F51064CD78012D0ED025
:10206000012A15D04C69DCB1D0F834780C7804F032
:102070000F050124AC403C43C0F834480DE025690D
:1020800025F0C0452561256945F000552561A9E782
:1020900000EB43140D69C4F81459CC78012CA6D078
:1020A00000EB4313D3F8004944F00444C3F800495B
:1020B000CB78012B7FF47DAF14468B8A0A78C968F0
:1020C0000094FFF733FF74E78E683544013DB5FB9C
:1020D000F6F52769114E06EAC5463E432661276993
:1020E000ADB28E6806FB05F5C5F312053D432561CB
:1020F00052E7CA68626152E7D0F8082812F4807F7C
:10210000D3F8002B0CBF42F0005242F08052C3F8CB
:10211000002B48E70000F8FFFFFF07E00000F81F72
:10212000033292080ED070B40C46002300F580569E
:10213000356844F8045B01339A42F9D101EB83001E
:1021400070BC7047084670470B784A78012A0ED059
:1021500000EB4310D0F8002B0BB1002A1BDAD0F8AB
:10216000003B43F40013C0F8003B0020704700EB35
:102170004310D0F800293BB1002A05DBD0F8003924
:1021800023F08043C0F80039D0F8003943F400133D
:10219000C0F80039E9E7D0F8003B23F08043C0F8ED
:1021A000003BDCE70B784A78012A0ED000EB4310A5
:1021B000D0F8003B23F40013C0F8003BCB78023B7F
:1021C000DBB2012B15D90020704700EB4310D0F88B
:1021D000003923F40013C0F80039CB78023BDBB29E
:1021E000012BF0D8D0F8003943F08053C0F8003903
:1021F000E9E7D0F8003B43F08053C0F8003BE2E74A
:1022000038B5044600F5106300F52E604FF67F32B6
:102210009A60C3F8082220338342F9D10025C4F81C
:102220001058C4F81458C4F81C582046FFF7E2FBB5
:1022300010212046FFF7CCFB284638BDD0F80038E7
:1022400023F4FE63C0F80038D0F80038090101F427
:10225000FE611943C0F800180020704708B5D0F897
:10226000043823F00203C0F8043803200CF03AFAD3
:10227000002008BD08B5D0F8043843F00203C0F8C8
:10228000043803200CF02EFA002008BD4269806952
:1022900010407047D0F8183800F50060C069184049
:1022A000000C7047D0F8183800F50060C06918407D
:1022B00080B2704700EB4111D1F8082B00F50060A7
:1022C00040691040704710B4D0F81048D0F8343846
:1022D00000EB411000F51060806801F00F01CB4069
:1022E000DB01DBB2234318405DF8044B70474369C0
:1022F000194341617047406900F001007047D0F810
:1023000000290C4B1340C0F8003900F500639A68AF
:1023100002F00602042A05D05A6842F480725A601C
:1023200000207047D0F8002942F00302C0F80029CD
:10233000F2E700BF00F8FFFF10B40024C0F8104B14
:10234000D0F8104B44F40024C0F8104BD0F8104BD8
:1023500044F01804C0F8104BD0F8104B44F0C044BF
:10236000C0F8104B012903D000205DF8044B7047E2
:10237000C0F8142B4FF08023C0F8003BF4E710B4F2
:1023800000F58064D0F8003423F00303C0F8003473
:10239000D0F8002401F003031343C0F800340129EE
:1023A00005D0022907D000205DF8044B70474BF69A
:1023B00080336360F7E741F270736360F3E730B531
:1023C00083B0044600250195D0F840340193019B69
:1023D00023F02E030193019B43F48073C0F8403433
:1023E00064200CF07FF9019B23F48073C4F840341F
:1023F0000A200CF077F9284603B030BD82B00023E4
:102400000193D0F840340193019B23F02E030193F4
:10241000019B13F4805F01D1012907D0019B13F4C4
:10242000805F00D041B1002002B07047019B43F4AF
:102430008053C0F84034F1E7019B23F48053C0F887
:102440004034F0E784B038B5044605A880E80E00B3
:10245000069D0023C4F8003EA36B23F40013A3637E
:10246000079B032B02D1B4F1A04F40D1D4F8003424
:1024700023F00403C4F8003410212046FFF7A8FA23
:102480002046FFF7B7FA5DB104F5A06300224FF0D4
:10249000FF3011469860D960013220339542F9D15E
:1024A00001212046FFF7AAFFC8200CF01BF90023EA
:1024B000A3614FF0FF336361B4F1A04F1ED04FF41E
:1024C0000073636203F18073A362124BC4F800319E
:1024D000089B1BB9A36943F01003A361A2690E4BCB
:1024E0001343A3610020BDE8384004B07047D4F81E
:1024F000003443F00403C4F80034BDE74FF0A043B8
:1025000080225A6202F5C0029A62044AC3F800218E
:10251000DEE700BF0003E000080020A3E000400069
:1025200082B000230193D0F8403401930198C0F3A6
:10253000414002B0704700F58060806880B270470B
:10254000F0B49DF8144000EB411505F5A0664FF07E
:10255000FF37B760032C6DD8DFE804F00261022674
:1025600040F29D47F76012F0800F07D1B0F1A04F05
:1025700020D0F76847F06007F7601BE0F76847F482
:102580008077F760D0F8187401F00F0C012101FA80
:102590000CF13943C0F81814816941F00071816170
:1025A00000204FF4004616E040F29D67F76012F0FD
:1025B000800F2FD1D0F818C401F00F01012606FAC0
:1025C00001F141EA0C01C0F81814816941F0007171
:1025D0008161002006469DF8101002290CBF4FF4BF
:1025E000003100219B0503F0FE53BDF81870C7F3BE
:1025F0000A073B43D20202F4F0421343A20402F45E
:102600004022134333430B43C5F80035032C29D034
:10261000F0BC7047F76847F48077F760B2E740F2A4
:102620002527F76012F0800FC4D0F76847F4C07711
:10263000F760A7E700F58066D0F8187401F00F0C7A
:10264000012101FA0CF13943C0F81814816941F0F5
:102650000071816151B201200029B4BF4FF40046DE
:102660000026B8E7D5F8003543F00053C5F800352B
:10267000CEE700F58060406980B2704700EB411101
:1026800001F5A062D1F8003513F4802F2AD1D1F8DA
:10269000003543F08043C1F80035C36A13F47F0F5F
:1026A00019D1D1F8003523F00043C1F80035D1F835
:1026B000003543F00043C1F80035D1F8003523F46C
:1026C0000043C1F800354FF47A731168002934DAF9
:1026D000013BFAD131E0D1F8003543F00043C1F8B5
:1026E00000352AE0D1F8003543F08043C1F80035C9
:1026F000D0F8103413F47F0F19D1D1F8003523F03E
:102700000043C1F80035D1F8003543F00043C1F86B
:102710000035D1F8003523F40043C1F800354FF4FB
:102720007A731168002908DA013BFAD105E0D1F883
:10273000003543F00043C1F800350020704700EB3E
:102740004111064AC1F81025D1F8003523F0804325
:1027500043F00043C1F800350020704700000880B6
:10276000F0B583B04B78B0F1A04F05D00C791CB90F
:10277000B2B94C79012C0FD00D69F5B10C89013D2E
:102780002544B5FBF4F5ADB2B5F5807F16D924022A
:102790000C614FF4807511E01946FFF7D0FF75E02A
:1027A000012AE9D100EB4314D4F80C5525F060055B
:1027B000C4F80C5500244C71DEE70125CC781CB11F
:1027C0000C8905FB04F40C6100EB43138C7A64075D
:1027D00004F0C0440E69C6F312063443334E06EAD1
:1027E000C5452C43C3F8104512B1CC68C3F8144555
:1027F00000F58066B468D3F8005525F00055C3F89D
:102800000055D3F8005584F0010404F0010445EAB2
:102810004474C3F80045D3F80055254C256025685D
:1028200025F080452560CC78C4B1214D2C6844F456
:1028300000442C601E4C256845F000452560246846
:10284000C3F8004512BBCB7803BB0B69F3B1CA795F
:10285000032A14D8DFE802F0081D081D144D2C6867
:1028600024F400442C60E5E7C26A92B20333C3F358
:102870008F039A4203D2836943F0200383610B8A5A
:102880004A78C96800240094FFF750FB002003B089
:10289000F0BD326992B20333C3F38F039A42EED292
:1028A000836943F080638361E9E700BF0000F81F9C
:1028B0007C0C002038B50446836823F00103836054
:1028C0001021FFF785F82046FFF794F804F5A06083
:1028D00004F5E06205462B6823F0802343F0804333
:1028E00045F8203B9542F6D1002302E02030A84273
:1028F0000ED00146026822F4004242F040420260DB
:102900000133B3F57A7FF1D80A68002AF8DBEDE7E6
:102910004FF0FF33C4F814346361A36843F001033C
:10292000A360002038BDD0F8083800F5006013F02F
:10293000010F03D0436843F0010343600020704758
:10294000D0F8043823F00103C0F8043800207047A1
:102950000649CA6822F4E0621204120C044B1343C5
:10296000000200F4E0601843C860704700ED00E02A
:102970000000FA0530B4144BDB68C3F30223C3F143
:102980000704042C28BF04241D1D062D8CBF033B07
:1029900000234FF0FF3505FA04F421EA04019940C1
:1029A00005FA03F322EA03031943002805DB0901B2
:1029B000C9B2064B195430BC704700F00F00090132
:1029C000C9B2034B1954F6E700ED00E000E400E063
:1029D00014ED00E0420900F01F00012303FA00F0AB
:1029E000014B43F82200704700E100E0430900F08A
:1029F0001F00012202FA00F02033024A42F82300AD
:102A0000704700BF00E100E0BFF34F8F0549CA687F
:102A100002F4E062044B1343CB60BFF34F8F00BF5F
:102A2000FDE700BF00ED00E00400FA050138B0F159
:102A3000807F0AD2064B5860064AF02182F82310A4
:102A40000020986007221A6070470120704700BF7D
:102A500010E000E000ED00E0BFF35F8F044A536A2E
:102A600023F480335362034B00225A60704700BF47
:102A700000ED00E090ED00E040F00100054B5860F3
:102A8000054A536A43F480335362BFF34F8FBFF359
:102A90006F8F704790ED00E000ED00E04278134B3F
:102AA0009A60037823B9114B0022DA601A617047EB
:102AB00043680E4AD360017BC37A1B0643EA017365
:102AC00001780B43817A43EAC143417B43EA814366
:102AD000817B43EA4143C17B43EA0143417A43EAB4
:102AE0000123017A43EA41031361704790ED00E04E
:102AF000024BD868C0F30220704700BF00ED00E031
:102B000070B400281EDB124C205C000901F00701A4
:102B1000C1F10704042C28BF04240D1D062D8CBF11
:102B2000033900214FF0FF3505FA04F420FA01F6CD
:102B300026EA0404146005FA01F120EA0100186095
:102B400070BC704700F00F00024C205C0009DDE70C
:102B500000E400E014ED00E0430900F01F00012252
:102B600002FA00F04033024A42F82300704700BFE7
:102B700000E100E043094033044A52F8233000F0FA
:102B80001F0023FA00F000F00100704700E100E0B0
:102B9000430900F01F00012202FA00F06033024AEC
:102BA00042F82300704700BF00E100E04309803392
:102BB000044A52F8233000F01F0023FA00F000F01E
:102BC0000100704700E100E00428044A13680CBFCC
:102BD00043F0040323F004031360704710E000E0A7
:102BE000704708B5FFF7FCFF08BD00BF144B9842C3
:102BF00017D02033984216D02033984215D0203376
:102C0000984214D02033984213D02033984212D0E7
:102C10002033984211D02033984214BFFF20072060
:102C20007047002070470120704702207047032042
:102C3000704704207047052070470620704700BF8A
:102C400000740140436B6BB90268136843F40033AE
:102C5000136090F84C30012B0CBF0223042380F842
:102C60004C3070470268136823F001031360026858
:102C7000136843F4002313600268136843F00103F0
:102C8000136090F84C30032BE3D1836B23B90268B7
:102C9000136843F00203136090F84030012B0CBF1F
:102CA000436C01238364D4E70268136823F00103B3
:102CB0001360436B012B11D00268136843F00103CA
:102CC000136090F84C30042B0ED090F84C30022B4F
:102CD0000CBF0123032380F84C307047026813684F
:102CE00023F400231360E7E7836B23B902681368BA
:102CF00043F00203136090F84030012B0CBF436C8B
:102D000001238364E1E7836B6BB90268136843F0C6
:102D10000203136090F84C30012B0CBF03230423F3
:102D200080F84C3070470268136823F00103136089
:102D3000836B012B15D002681368C16B0B431360C2
:102D40000268136843F00103136090F84C30022BC3
:102D5000E0D1436B5BB90268136843F4003313603E
:102D6000D8E70268136843F008031360E8E7042318
:102D7000D6E70268136823F001031360836B012B0D
:102D80001AD0022B1ED00268136843F001031360AF
:102D900090F84C30042B1BD090F84030012B0CBF26
:102DA000436C0123836490F84C30032B0CBF012348
:102DB000022380F84C3070470268136823F0080340
:102DC0001360E0E70268136823F4C0431360DAE796
:102DD000436B002BE0D10268136843F400331360A7
:102DE000DAE77047002878D010B504460068FFF78E
:102DF000FDFE3B4B53F820300BB1012010BD2046A7
:102E0000FDF736FD364B1A6A01321A621B6A012B36
:102E100045D02268136823F4714313602268116857
:102E2000236960690343A06903430B43136022686D
:102E3000136823F00F03136022681168E369206AA6
:102E400003430B4313602268936823F45F0393608A
:102E500021688B68A26A013A606A034343EA02432D
:102E60008B602268536803F007035360226853683D
:102E7000216B43EAC103E16A43EA012353602268FC
:102E8000136843F080031360012384F83430206812
:102E9000FFF7ACFE124B43F820400020AEE7114B89
:102EA0001A6822F080421A601A68A1680A431A6000
:102EB0001A6822F47F021A602379012B05D0094A8F
:102EC000136843F000431360A3E706490B68E26808
:102ED000013A43EA02430B60F1E70120704700BF6B
:102EE000800C002000740140704730B338B50446B0
:102EF00005682846FFF77AFE124B53F82030F3B1ED
:102F00002B6823F080032B600E4B1A6A013A1A6279
:102F10001B6A23B90C4A136823F000431360204650
:102F2000FDF7D8FC002584F834502068FFF75EFEDA
:102F3000044B43F82050284638BD0120704701203B
:102F4000FAE700BF800C0020007401402DE9F8432F
:102F500090F83430012B02D00120BDE8F8830546FB
:102F60000068FFF743FE06460BF09AFB81461036D9
:102F7000012303FA06F6B0460C4C41F28837A368E9
:102F800003F47F03334209D0C4F80C800BF088FBB4
:102F9000A0EB0900B842F2D90320DEE72A681368E3
:102FA00043F0400313600020D7E700BF00750140E5
:102FB00090F83430012B01D0012070472DE9F04109
:102FC0000C460068FFF712FE07460BF069FB8046CF
:102FD00010370125BD400E4EB36803F47F032B422A
:102FE0000BD1B4F1FF3FF7D07CB10BF059FBA0EB54
:102FF0000800A042F0D9032005E0012303FA07F7F7
:10300000034BDF600020BDE8F0810320FBE700BF39
:103010000075014008B590F83430012B01D0012033
:1030200008BD0268136823F0400313600068FFF7CF
:10303000DDFD1030012303FA00F0024BD8600020C0
:10304000EEE700BF007501402DE9F84390F83430F9
:10305000012B02D00120BDE8F88305460068FFF788
:10306000C5FD06460BF01CFB81461036012303FA12
:1030700006F6B0460E4C41F28837A36803F47F038E
:10308000334209D0C4F80C800BF00AFBA0EB090016
:10309000B842F2D90320DEE7054A536843F0400303
:1030A00053602A68136843F0400313600020D2E79E
:1030B00000750140704708B590F83430012B01D0FD
:1030C000012008BD0268136823F040031360006804
:1030D000FFF78CFD1030012303FA00F0034BD8609A
:1030E0005A6822F040025A600020EAE70075014069
:1030F00090F83430012B01D00120704730B40468BF
:10310000A568084B2B40A36003689C6841EA023124
:10311000214399600268136843F020031360002084
:1031200030BC7047000FFFFFF8B590F83430012B2A
:1031300001D00120F8BD0C460068FFF757FD054699
:103140000BF0AEFA07460D4E1835B36803F07F4317
:10315000EB400AD1B4F1FF3FF7D06CB10BF0A0FA0D
:10316000C01BA042F1D90320E4E7012303FA05F5CF
:10317000024BDD600020DDE70320DBE70075014046
:1031800008B590F83430012B01D0012008BD026849
:10319000136823F0200313600068FFF727FD183041
:1031A000012303FA00F0024BD8600020EEE700BFD5
:1031B0000075014090F83430012B01D00120704798
:1031C00030B40C4C636843F0200363600468A56866
:1031D000094B2B40A36003689C6841EA02312143FC
:1031E00099600268136843F020031360002030BC2C
:1031F000704700BF00750140000FFFFF704708B522
:1032000090F83430012B01D0012008BD026813680A
:1032100023F0200313600068FFF7E8FC1830012357
:1032200003FA00F0034BD8605A6822F020025A607B
:103230000020EAE7007501400368D86800B27047D3
:1032400090F83430012B01D0012070470268536898
:10325000DBB253600268536843EA012151600020E9
:10326000704790F8340070477047002875D010B54B
:10327000044602683B4B9A4261D00023236301223B
:103280006264A26423652046FFF7EEFF226813689C
:1032900023F400231360237A012B226813680CBFE8
:1032A00043F0005323F000531360637A012B22682C
:1032B00013680CBF43F4001323F400131360226857
:1032C0001168294B0B401360E368022B3FD0237C2D
:1032D000012B226813680CBF43F0100323F0100386
:1032E0001360637C012B226813680CBF43F020033A
:1032F00023F020031360226851691C4B0B4053617B
:1033000021684A69636A013B1343E2691343226AF5
:10331000013A43EA02434B6163686363E368A36372
:10332000A369E363237C84F840302268136843F088
:1033300001031360012384F84C30002010BD436862
:10334000012B0CD0C368012B97D10120F6E722682E
:10335000136861690B431360B9E7012070470120CE
:10336000ECE700BF00750140F780FFFF00FF001C85
:10337000704760B110B504460268136823F001037A
:103380001360FFF7F5FF002084F84C0010BD01200A
:10339000704790F84C30013BDBB2FD2B1CD830B4A9
:1033A000046825680D4B2B402360012A0AD003686E
:1033B0001C68090201F07F4121431960026300206B
:1033C00030BC7047046825680B0203F07F4343F468
:1033D00080232B432360F1E701207047FFFFFBF8B8
:1033E00090F84C30013BDBB2FD2B01D90120704736
:1033F000036889B2196179B1002311F0010F18BF78
:1034000001334908F9D1436490F84020012A18BFDC
:1034100001238364002070470023F4E708B590F887
:103420004C3003F0FD03012B03D1FFF70BFC002010
:1034300008BD0120FCE708B590F84C30042B03D000
:10344000022B01D0012002E0FFF72EFC002008BD76
:1034500008B590F84C3003F0FD03012B08D1026849
:10346000536843F00A035360FFF7ECFB002008BDEC
:103470000120FCE708B590F84C30042B03D0022B58
:1034800001D0012007E00268536823F00A0353606B
:10349000FFF70AFC002008BD002947D038B50D46CB
:1034A000002A39D00168096811F4001F36D0416B39
:1034B00059B9016B49B9816AC96909B9012A2FD182
:1034C000816AC969B1F5807F2ED090F84C1001F067
:1034D000FD01012926D113460446826A1449D163AD
:1034E000826A1449D164806AC269B2F5807F124948
:1034F00018BF0021016421682A461C31A06A0AF025
:1035000050FC20B1FF2384F84C30012005E0204618
:10351000FFF798FB002000E0012038BD0120FCE708
:103520000120FAE70120F8E70120F6E701207047C3
:1035300063390008133A00086F390008002947D0A2
:1035400038B50D46002A39D00168096811F4001F0A
:1035500036D0416B59B9016B49B9816AC96909B95A
:10356000012A2FD1816AC969B1F5807F2ED090F8E8
:103570004C1001F0FD01012926D113460446826A50
:103580001449D163826A1449D164806AC269B2F570
:10359000807F124918BF0021016421682A461E312C
:1035A000A06A0AF0FEFB20B1FF2384F84C30012012
:1035B00005E02046FFF746FB002000E0012038BD73
:1035C0000120FCE70120FAE70120F8E70120F6E7F7
:1035D0000120704763390008133A00086F3900086A
:1035E00090F84C30042B03D0022B01D001207047FF
:1035F00010B50446806A0AF01EFC20B1FF2384F84F
:103600004C30012010BD2046FFF74EFB0020F9E7AB
:103610000368D86900F007030B600012704708B513
:1036200090F84C30013BDBB2012B01D9012008BDE1
:10363000FFF769FB0020FAE708B590F84C30033B30
:10364000DBB2012B01D9012008BDFFF792FB00205E
:10365000FAE708B590F84C30013BDBB2012B01D9F9
:10366000012008BD0268536843F005035360FFF76B
:103670004AFB0020F5E708B590F84C30033BDBB27D
:10368000012B01D9012008BD0268536823F005030E
:103690005360FFF76EFB0020F5E7002944D038B5F2
:1036A0000C46002A3AD003681B6813F0200F37D06D
:1036B000836B53B9C36ADB6923B9836C934204D229
:1036C00001202CE0B3F5807F2CD090F84C30013BEA
:1036D000DBB2012B01D9012021E013460546C26A65
:1036E0001249D163C26A1249D164C16ACA69B2F58A
:1036F000807F104A18BF00220A64016822461831F0
:10370000C06A0AF04EFB20B1FF2385F84C3001203F
:1037100005E02846FFF7F7FA002000E0012038BD59
:103720000120FCE70120FAE7012070477B390008FF
:10373000133A000887390008002944D038B50C46F0
:10374000002A3AD003681B6813F0200F37D0836B30
:1037500053B9C36ADB6923B9836C934204D2012055
:103760002CE0B3F5807F2CD090F84C30013BDBB2DD
:10377000012B01D9012021E013460546C26A1349F5
:10378000D163C26A1249D164C16ACA69B2F5807F45
:10379000104A18BF00220A64016822461A31C06A22
:1037A0000AF0FFFA20B1FF2385F84C30012005E034
:1037B0002846FFF7A8FA002000E0012038BD0120CC
:1037C000FCE70120FAE70120704700BF7B390008C1
:1037D000133A00088739000890F84C30033BDBB2FD
:1037E000012B01D90120704710B50446C06A0AF0C8
:1037F00022FB20B1FF2384F84C30012010BD20466D
:10380000FFF7B7FA0020F9E70368986900F00703AB
:103810000B600012704790F84C30013BDBB2FD2B7F
:1038200035D810B40268136823F08043136002682F
:1038300013680C68234313600268136A03F0F003F3
:1038400013620268136A8C6843EA04230C692343F9
:1038500013620268536A03F0F00353620268536A0A
:10386000CC6843EA04234C692343536202685368DB
:1038700023F47F03536002685368496843EA0143B5
:1038800043F01003536000205DF8044B70470120A3
:10389000704790F84C30013BDBB2FD2B19D8026821
:1038A00051680D4B0B40536003684FF6FF72DA62AC
:1038B0000268136A03F0F00313620268536A03F0AC
:1038C000F00353620268136823F080431360002002
:1038D00070470120704700BFEFFF00FF90F84C30A9
:1038E000013BDBB2FD2B0DD80268536823F47F4304
:1038F000536002685068044B03EA012101435160A0
:10390000002070470120704700FFFF0090F84C3006
:10391000013BDBB2FD2B0FD882B00268536823F461
:103920007F43536003681A6B01925B6B0093019BAA
:10393000009B002002B07047012070470368186B9D
:1039400000F007030B60001270470368586B00F02B
:1039500007030B60001270470368986B00097047FB
:10396000704708B5806BFFF7FBFF08BD704708B5CF
:10397000806BFFF7FBFF08BD704708B5806BFFF752
:10398000FBFF08BD704708B5806BFFF7FBFF08BD64
:103990007047704790F84C30042B03D0022B01D0B5
:1039A0000120704770B50C4605460AF079FE0646C0
:1039B0002A68936813F0020F0AD1B4F1FF3FF8D0E0
:1039C0000CB30AF06DFE801BA042F1D903201DE06C
:1039D000936813F0080F0DD12B6BB3B96B6BB3B9B0
:1039E00095F84C30022B0CBF0123032385F84C3093
:1039F00000200BE001232B652846FFF7CAFF2B6848
:103A00000822DA60E8E7032000E0002070BD002013
:103A1000FCE708B5806B03230365FFF7BAFF08BD19
:103A2000F8B590F84C30033BDBB2012B01D90120F3
:103A3000F8BD0D4606460AF033FE07463268946824
:103A400014F001040AD1B5F1FF3FF8D04DB30AF0EC
:103A500027FEC01BA842F1D90320E9E7936813F0C1
:103A6000040F15D1B36C013BB364E3B9B36B3BB93D
:103A700096F84C30032B0CBF0123022386F84C3000
:103A800096F84030012B08BF746CB4640020CFE777
:103A9000022333653046FFF77CFF33680422DA6087
:103AA000E0E70320C4E70020C2E72DE9F041044627
:103AB00003689A6812F0080F03D05A6812F0080FD2
:103AC00018D19A6812F0040F03D05A6812F0040F4C
:103AD00017D19A6812F0020F1BD19A6812F0010FE9
:103AE00032D19A6812F0100F50D1684A934272D0C6
:103AF000BDE8F0810822DA6001230365FFF749FF82
:103B0000F6E70422DA60022323652046FFF741FF2F
:103B1000EEE75A6812F0020FDFD02046FFF720FFD1
:103B2000236B002BE4D1636B002BE1D12268536837
:103B300023F00203536094F84C30022B0CBF012396
:103B4000032384F84C30D3E75D6815F00105C8D035
:103B50002046FFF711FFA36C013BA364002BC7D1E4
:103B6000A36B63B92268536823F00103536094F890
:103B70004C30032B0CBF0123022384F84C3094F803
:103B80004030012B08BF656CA564B1E75A6812F09C
:103B9000100FAAD0986A10F0FF0F71D1000A10F030
:103BA000010F10D1002200210131400810F0010F57
:103BB000FAD06AB901F108050120A840D862204670
:103BC000FFF7E6FE94E700210A46F3E70021012211
:103BD00001208840F2E72D4B9B6813F47F0F29D01A
:103BE0002A4B5B6813F0400F24D0284B9E68C6F325
:103BF00007460025264F4FF0010804E001357608FE
:103C0000082D3FF475AF16F0010FF7D0AA0057F852
:103C10002530002BF2D01B681B6813F0400FEDD04D
:103C2000216805F1100308FA03F3CB60B858FFF7D9
:103C300041FAE3E7154B9B6813F07F4F3FF458AF11
:103C4000124B5B6813F0200F3FF452AF0F4B9B6891
:103C50001B0E13F0010F11D1002201325B0813F08B
:103C6000010FFAD002F1180101238B400749CB6004
:103C7000074B53F82200FFF7C1FA39E70022F1E7BA
:103C800010F0010FA2D101228DE700BF00750140A5
:103C9000800C002090F84C007047006D704700BF0A
:103CA00003689A6912F0020F01D000229A62036839
:103CB0009A6912F0010F03D19A6942F001029A61E8
:103CC00070477047704770B4039C06687068650D54
:103CD00005F4806545F07F7545F4583545F47F75EA
:103CE00045F0030520EA050044EA02421A43C1F305
:103CF00009010A430243726070BC7047436B1A4A61
:103D000093421ED0194A93421BD001F00403002BAA
:103D10000CBF0023B82311F0010F18BF43F0F203CA
:103D200011F0020F18BF43F0F40301F01201122941
:103D300008BF43F0200301680A6813430B600020AA
:103D4000704701F00403002B0CBF0023B82301F0DF
:103D50001102112A08BF43F0900301F01201122949
:103D6000E9D143F06003E6E71F5F0008F96100084E
:103D700011F0010F2CD090F8413003F02803282BCC
:103D80000CBF4223F22311F0020F09D090F841201A
:103D900002F02802282A0CBF43F0440343F0F40346
:103DA00011F0040F18BF43F0B80301F01102112AFB
:103DB00008BF43F0900301F01201122908BF43F03D
:103DC000600301680A6822EA03030B600020704761
:103DD0000023D8E770B505460C46164603689B6974
:103DE00013F0100F35D02A68936913F0200F12D109
:103DF000B4F1FF3FF8D024B10AF052FC801BA0427E
:103E0000F1D9202385F84130002385F8423085F828
:103E1000403003201CE01023D3612B682024DC6198
:103E20002846FFF73DFF2A68536823F0FF7323F409
:103E30008B3323F4FF7323F00103536004236B647B
:103E400085F84140002385F8423085F84030012054
:103E500070BD0020FCE770B504460D461646236889
:103E60009B6913F0020F1CD1324629462046FFF70A
:103E7000B1FFC0B9B5F1FF3FF1D025B10AF010FC98
:103E8000801BA842EBD9636C43F0200363642023BA
:103E900084F84130002384F8423084F84030032015
:103EA00000E0002070BD0120FCE7F8B507460E4693
:103EB00015461C463A68936936EA03030CBF012392
:103EC0000023AB4213D1B4F1FF3FF4D02CB10AF080
:103ED000E7FB069BC01AA042ECD9202387F84130AB
:103EE000002387F8423087F84030032000E00020AC
:103EF000F8BD70B582B0044616461D461C4B0093B3
:103F00004FF08073EAB2FFF7DEFE079A069920466B
:103F1000FFF7A1FF30B1636C042B0CBF012003201D
:103F200002B070BD012D0FD12368F6B29E62079BCF
:103F30000093069B002280212046FFF7B6FF002851
:103F400014BF03200020EBE72368320A9A62079A25
:103F500006992046FFF77FFF28B1636C042B0CBF46
:103F600001200320DCE72368F6B29E62DFE700BF92
:103F70000020008070B582B0044616461D461C4BDA
:103F800000930023EAB2FFF79EFE079A06992046A7
:103F9000FFF761FF30B1636C042B0CBF01200320DD
:103FA00002B070BD012D0FD12368F6B29E62079B4F
:103FB0000093069B002240212046FFF776FF002851
:103FC00014BF03200020EBE72368320A9A62079AA5
:103FD00006992046FFF73FFF28B1636C042B0CBF06
:103FE00001200320DCE72368F6B29E62DFE700BF12
:103FF0000020008070B505460C4616462B689B696C
:1040000013F0200F19D1324621462846FFF7E2FE71
:10401000A8B924B10AF044FB801BA042EED96B6C16
:1040200043F020036B64202385F84130002385F89A
:10403000423085F84030032070BD0020FCE70120AD
:10404000FAE770B504460D46164623689B6913F0DF
:10405000040F3AD1324629462046FFF7BBFE00281E
:1040600035D123689A6912F0200F11D125B10AF0D9
:1040700017FB801BA842E8D9636C43F020036364FC
:10408000202384F84130002384F84030032070BDA1
:104090009A6912F0040F01D0228DD2B92022DA6180
:1040A00021684B6823F0FF7323F48B3323F4FF73F1
:1040B00023F001034B600023636484F8412084F8FB
:1040C000423084F840300120E1E70020DFE70120A2
:1040D000DDE70020DBE710B5846B2268136823F46A
:1040E00080431360638D9BB2A3B1238D616A194431
:1040F0006162638D9BB2FF2B11D9FF232385226858
:10410000238D2832A06B09F04CFE12212046FFF7C8
:10411000F5FD10BD12212046FFF7F0FDF9E7638D94
:104120002385ECE710B5846B2268136823F4004301
:104130001360638D9BB2A3B1238D626A1A446262DD
:10414000638D9BB2FF2B11D9FF2323852168238D1B
:104150002431E06B09F025FE12212046FFF7CEFD49
:1041600010BD12212046FFF7C9FDF9E7638D2385B5
:10417000ECE77047002853D010B5044690F8413062
:10418000002B43D0242384F841302268136823F0A5
:10419000010313602268636823F07063136122686F
:1041A000936823F400439360E368012B2268A368BB
:1041B0000CBF43F4004343F404439360E368022BD1
:1041C00029D022685168174B0B4353602268D3688B
:1041D00023F40043D3602268236961690B43A1691A
:1041E00043EA0123D3602268E369216A0B43136029
:1041F0002268136843F001031360002060642023E9
:1042000084F84130206384F8420010BD80F84030CB
:10421000FCF77EFBB6E723684FF400625A60D0E7F4
:1042200001207047008000027047A8B110B5044615
:10423000242380F841300268136823F001031360DF
:10424000FCF790FB0020606484F84100206384F850
:10425000420084F8400010BD012070472DE9F04372
:1042600083B090F84150EDB2202D40F0B08090F82E
:104270004040012C00F0AF80984617460E46044699
:104280004FF0010980F840900AF00AFA05460090C4
:1042900019234A464FF400412046FFF706FE002846
:1042A00040F09B80212384F84130102384F8423071
:1042B000002363646762A4F82A806363638D9BB202
:1042C000FF2B44D9FF222285464B00934FF0807389
:1042D00031462046FFF7F7FC00274FF080084FF0EB
:1042E0000079638D9BB2002B4FD02A460A99204655
:1042F000FFF7B1FD002837D1636A5A1C6262226859
:104300001B789362638D013B9BB26385238D013BD8
:104310009BB22385002BE4D1638D9BB2002BE0D0B0
:1043200000950A9B3A4641462046FFF7BEFD00280D
:1043300055D1638D9BB2FF2B1CD9FF22228500979C
:104340004FF0807331462046FFF7BDFCC9E7628D10
:1043500092B22285234B00934FF00073D2B23146C4
:104360002046FFF7B0FCB7E7636C042B0CBF0120BD
:1043700003202DE0628D92B2228500974B46D2B287
:1043800031462046FFF79FFCABE72A460A992046B4
:10439000FFF730FE28B1636C042B0CBF0120032013
:1043A00016E023682022DA6121684B6823F0FF734E
:1043B00023F48B3323F4FF7323F001034B6084F861
:1043C0004120002084F8420084F8400000E00220F0
:1043D00003B0BDE8F0830220FAE70320F8E70320EA
:1043E000F6E700BF002000802DE9F04383B090F88D
:1043F0004150EDB2202D40F0B08090F84040012CAB
:1044000000F0AF80984617460E4604464FF001096B
:1044100080F840900AF044F90546009019234A4676
:104420004FF400412046FFF740FD002840F09B80FC
:10443000222384F84130102384F84230002363643F
:104440006762A4F82A806363638D9BB2FF2B44D913
:10445000FF222285464B00934FF080733146204661
:10446000FFF731FC00274FF080084FF00079638D93
:104470009BB2002B4FD02A460A992046FFF7E1FD58
:10448000002837D123685A6A636A591C61621A701E
:10449000238D013B9BB22385628D013A92B26285E6
:1044A000002BE4D1638D9BB2002BE0D000950A9BDA
:1044B0003A4641462046FFF7F8FC002855D1638D67
:1044C0009BB2FF2B1CD9FF22228500974FF08073EF
:1044D00031462046FFF7F7FBC9E7628D92B222858D
:1044E000234B00934FF00073D2B231462046FFF7C2
:1044F000EAFBB7E7636C042B0CBF012003202DE01F
:10450000628D92B2228500974B46D2B23146204648
:10451000FFF7D9FBABE72A460A992046FFF76AFD69
:1045200028B1636C042B0CBF0120032016E0236824
:104530002022DA6121684B6823F0FF7323F48B3368
:1045400023F4FF7323F001034B6084F84120002023
:1045500084F8420084F8400000E0022003B0BDE887
:10456000F0830220FAE70320F8E70320F6E700BF14
:10457000002400802DE9F04182B090F84150EDB266
:10458000202D40F0B480002900F0B580002A00F012
:10459000B28090F84040012C00F0AF801D4690465C
:1045A0000F460446012380F840300AF079F80646A9
:1045B000212384F84130202384F8423000226264B1
:1045C0006762A4F82A80626321684B6823F4004381
:1045D0004B6000902B4608212046FFF766FC002820
:1045E00052D123680822DA61E368022B53D0009687
:1045F0002B4600224FF480312046FFF756FC00285E
:104600005CD1638D9BB2A3B1324629462046FFF7A9
:1046100022FC002859D1636A5A1C626222681B7806
:104620009362628D013A92B26285638D9BB2002BD8
:10463000EAD1324629462046FFF7DCFC48B1226821
:10464000536843F400435360636C042B57D1002339
:10465000636423682022DA6100962B4601224FF41E
:1046600000412046FFF721FC002839D12268536819
:1046700043F400435360202384F84130002084F841
:10468000420084F8400033E02268536843F400435A
:10469000536003202CE000962B4600220821204680
:1046A000FFF703FC18B923680822DA619FE7226844
:1046B000536843F400435360032019E022685368B1
:1046C00043F400435360032012E02268536843F42C
:1046D00000435360636C042B0CBF0120032007E0F0
:1046E0002268536843F400435360032000E0022033
:1046F00002B0BDE8F0810120FAE70220F8E70320CC
:10470000F6E72DE9F04182B090F84150EDB2202D4E
:1047100040F0AD80002900F0AE80002A00F0AB80B0
:1047200090F84040012C00F0A8801D4690460E46AF
:104730000446012380F8403009F0B2FF07462223E7
:1047400084F84130202384F842300022626466629B
:10475000A4F82A80626321684B6823F400434B600D
:1047600000902B4608212046FFF79FFB002836D1FA
:1047700023680822DA6100972B4601224FF480312A
:104780002046FFF792FB002830D1638D9BB2A3B186
:104790003A4629462046FFF754FC00282DD12368CD
:1047A0005A6A636A591C61621A70628D013A92B248
:1047B0006285638D9BB2002BEAD13A46294620469A
:1047C000FFF718FC002831D02268536843F40043F7
:1047D0005360636C042B0CBF0120032048E0226867
:1047E000536843F400435360032041E02268536858
:1047F00043F40043536003203AE02268536843F4D3
:104800000043536023689A6912F0040F08D05A6A73
:10481000636A591C61621A70638D013B9BB26385A8
:10482000636C202B0CBF0320012021E02368202291
:10483000DA6100972B4601224FF400412046FFF732
:1048400034FB68B92268536843F400435360202363
:1048500084F84130002084F8420084F8400007E0EA
:104860002268536843F400435360032000E00220B1
:1048700002B0BDE8F0810120FAE70220F8E730B588
:1048800083B090F84140E4B2202C37D10468A46989
:1048900014F4004F35D190F84040012C33D001245E
:1048A00080F84040212480F84140102480F84240A4
:1048B0000024446442624385144BC362144B436337
:1048C000438D9BB2FF2B14D9FF2303854FF08073D8
:1048D000044690F828200F4800902046FFF7F3F98F
:1048E000002584F8405001212046FFF707FA2846AA
:1048F00005E0438D03854FF00073E9E7022003B024
:1049000030BD0220FBE70220F9E700BF0000FFFFF7
:10491000856000080020008030B583B090F84140E9
:10492000E4B2202C37D10468A46914F4004F35D1C7
:1049300090F84040012C33D0012480F840402224DC
:1049400080F84140102480F84240002444644262D0
:104950004385144BC362144B4363438D9BB2FF2BBF
:1049600014D9FF2303854FF08073044690F8282064
:104970000E4800902046FFF7A6F9002584F8405025
:1049800002212046FFF7BAF9284605E0438D03854A
:104990004FF00073E9E7022003B030BD0220FBE7CF
:1049A0000220F9E70000FFFF856000080024008076
:1049B00038B590F84130DBB2202B22D190F840304E
:1049C000012B20D0012380F84030212380F8413092
:1049D000202380F842300024446405686B6823F487
:1049E00000436B6041624285438D0385074BC36280
:1049F000074B436380F840400521FFF77FF92046CD
:104A000000E0022038BD0220FCE700BF0000FFFFED
:104A1000395D000838B590F84130DBB2202B22D147
:104A200090F84030012B20D0012380F84030222321
:104A300080F84130202380F8423000244464056827
:104A40006B6823F400436B6041624285438D0385AC
:104A5000074BC362074B436380F840400621FFF7D2
:104A60004DF9204600E0022038BD0220FCE700BFDF
:104A70000000FFFF395D00082DE9F04182B090F899
:104A80004150EDB2202D6AD10468A46914F4004F9E
:104A900069D190F84040012C67D016460F46044675
:104AA000012280F84020212280F84120102280F845
:104AB000422000224264466243852D4BC3622D4B47
:104AC0004363438D9BB2FF2B30D9FF2303854FF007
:104AD0008078A36B284ADA63A36B284ADA64A36B55
:104AE00000251D64A36B1D652268238D2832314685
:104AF000A06B09F056F994F82820214B0093434607
:104B000039462046FFF7DFF8638D228D9B1A9BB252
:104B1000638584F8405011212046FFF7EFF82268A2
:104B2000136843F480431360284619E0438D9BB219
:104B300003858BB9134B4363114B00934FF0007304
:104B40000022FFF7C0F8002584F8405001212046DC
:104B5000FFF7D4F8284603E04FF00078B9E70220C9
:104B600002B0BDE8F0810220FAE70220F8E700BFBA
:104B70000000FFFFF9610008D7400008D362000879
:104B80000020008085600008F0B583B090F84150A7
:104B9000EDB2202D69D10468A46914F4004F67D1E7
:104BA00090F84040012C65D00E460446012180F863
:104BB0004010222180F84110102180F8421000217D
:104BC0004164426243852C4BC3622C4B4363438D4B
:104BD0009BB2FF2B2FD9FF2303854FF08077E36B28
:104BE0002749D963E36B2749D964E36B00251D642A
:104BF000E36B1D652168238D2431E06B09F0D1F84A
:104C000094F82820204B00933B4631462046FFF77E
:104C10005AF8638D228D9B1A9BB2638584F84050AD
:104C200011212046FFF76AF82268136843F4004315
:104C3000136028461AE0438D9BB2038593B9134B4A
:104C40004363114B00934FF0007300223146FFF78E
:104C50003AF8002584F8405001212046FFF74EF82D
:104C6000284603E04FF00077B9E7022003B0F0BD1B
:104C70000220FBE70220F9E70000FFFFF9610008CE
:104C800025410008D36200080024008085600008E8
:104C900038B590F84130DBB2202B3DD100293DD012
:104CA000002A3BD090F84030012B39D00446012334
:104CB00080F84030212380F84130202380F84230B2
:104CC0000025456441624285438D0385154BC362CF
:104CD000154B4363836B154ADA63836B144ADA64BA
:104CE000836B1D64836B1D650268038D2832806BA6
:104CF00009F057F82268536823F40043536084F89E
:104D0000405004212046FEF7F9FF2268136843F45F
:104D100080431360284600E0022038BD0120FCE7F4
:104D20000220FAE70000FFFF1F5F0008C33C0008F5
:104D3000D362000838B590F84130DBB2202B3FD168
:104D400000293FD0002A3DD090F84030012B3BD0C5
:104D500013460A460446012180F84010222180F8BB
:104D60004110202180F842100025456442624385AD
:104D7000438D0385154BC362154B4363C36B1549C4
:104D8000D963C36B1449D964C36B1D64C36B1D65C0
:104D90000168038D2431C06B09F003F82268536861
:104DA00023F40043536084F8405004212046FEF76A
:104DB000A5FF2268136843F400431360284600E00F
:104DC000022038BD0120FCE70220FAE70000FFFFC7
:104DD0001F5F0008C53C0008D36200082DE9F047BA
:104DE00082B0BDF82C7090F84150EDB2202D40F00B
:104DF000CB800A9C002C00F0CB80002F00F0C880F4
:104E000090F84040012C00F0C580984691460D4630
:104E100004464FF0010A80F840A009F041FC064624
:104E20000090192352464FF400412046FFF73DF809
:104E3000002840F0B180212384F84130402384F8D9
:104E40004230002363640A9A626267856363019655
:104E50000C9B009343464A4629462046FFF749F8F3
:104E600048B1636C042B4FF0000384F840300CBF52
:104E70005046032089E0638D9BB2FF2B0FD9FF22A0
:104E80002285002300934FF0807329462046FEF7C9
:104E90001AFF00274FF080084FF0007920E0628D64
:104EA00092B22285002300934FF00073D2B22946BC
:104EB0002046FEF708FFECE7636C042B0CBF0120D3
:104EC000032062E0628D92B2228500974B46D2B2F7
:104ED00029462046FEF7F7FE638D9BB2002B31D0AA
:104EE00032460C992046FEF7B6FF0028E4D1636AEB
:104EF0005A1C626222681B789362638D013B9BB2ED
:104F00006385238D013B9BB22385002BE4D1638D08
:104F10009BB2002BE0D000960C9B3A4641462046BF
:104F2000FEF7C3FF002839D1638D9BB2FF2BC9D98F
:104F3000FF22228500974FF0807329462046FEF716
:104F4000C2FEC9E732460C992046FFF753F828B154
:104F5000636C042B0CBF0120032016E02368202281
:104F6000DA6121684B6823F0FF7323F48B3323F459
:104F7000FF7323F001034B6084F84120002084F884
:104F8000420084F8400000E0022002B0BDE8F08753
:104F90000120FAE70220F8E70320F6E70320F4E710
:104FA0002DE9F04782B0BDF82C7090F84150EDB279
:104FB000202D40F0C8800A9C002C00F0C880002FF3
:104FC00000F0C58090F84040012C00F0C280984667
:104FD00091460D4604464FF0010A80F840A009F0C2
:104FE0005FFB06460090192352464FF400412046CD
:104FF000FEF75BFF002840F0AE80222384F84130AA
:10500000402384F84230002363640A9A6262678511
:10501000636301960C9B009343464A46294620460B
:10502000FEF7A8FF48B1636C042B4FF0000384F82F
:1050300040300CBF5046032086E0638D9BB2FF2BAF
:105040000FD9FF222285474B00934FF080732946EA
:105050002046FEF738FE00274FF004084FF0800985
:105060001BE0628D92B222853E4B00934FF000739D
:10507000D2B229462046FEF726FEECE7628D92B2B8
:10508000228500974FF00073D2B229462046FEF7E2
:105090001AFE638D9BB2002B33D000960C9B3A46D0
:1050A00041462046FEF701FF002856D123685A6A80
:1050B000636A591C61621A70238D013B9BB2238580
:1050C000628D013A92B26285002BE2D1638D9BB270
:1050D000002BDED000960C9B3A4649462046FEF750
:1050E000E4FE00283BD1638D9BB2FF2BC6D9FF2283
:1050F000228500974FF0807329462046FEF7E3FD96
:10510000C7E732460C992046FEF774FF28B1636C5E
:10511000042B0CBF0120032016E023682022DA6153
:1051200021684B6823F0FF7323F48B3323F4FF7360
:1051300023F001034B6084F84120002084F84200F2
:1051400084F8400000E0022002B0BDE8F0870120B2
:10515000FAE70220F8E70320F6E70320F4E703204C
:10516000F2E700BF002400802DE9F04182B0BDF8D5
:10517000246090F84140E4B2202C57D1089C002CC8
:1051800058D0002E56D00468A46914F4004F53D1AF
:1051900090F84040012C51D0984614460F460546E1
:1051A000012380F8403009F07BFA212385F8413053
:1051B000402385F8423000236B64089B6B626E8548
:1051C0001F4BEB621F4B6B636B8D9BB2FF2B17D991
:1051D000FF232B854FF080760190192300934346DF
:1051E000224639462846FEF784FE70B16B6C042BCC
:1051F0004FF0000385F840300CBF0120032016E07B
:105200006B8D2B854FF00076E6E795F8282000247B
:105210000094334639462846FEF755FD85F8404050
:1052200001212846FEF76AFD204600E0022002B078
:10523000BDE8F0810120FAE70220F8E70220F6E756
:105240000000FFFF856000082DE9F04182B0BDF845
:10525000246090F84140E4B2202C58D1089C002CE6
:1052600059D0002E57D00468A46914F4004F54D1CB
:1052700090F84040012C52D0984617460C460546FF
:10528000012380F8403009F00BFA222385F84130E1
:10529000402385F8423000236B64089B6B626E8567
:1052A000204BEB62204B6B636B8D9BB2FF2B17D9AE
:1052B000FF232B854FF080760190192300934346FE
:1052C0003A4621462846FEF755FE70B16B6C042B1A
:1052D0004FF0000385F840300CBF0120032017E099
:1052E0006B8D2B854FF00076E6E795F828200F4B65
:1052F0000093334621462846FEF7E5FC002485F856
:10530000404002212846FEF7F9FC204600E002203A
:1053100002B0BDE8F0810120FAE70220F8E70220A0
:10532000F6E700BF0000FFFF856000080024008052
:105330002DE9F04383B0BDF82C5090F84140E4B221
:10534000202C72D10A9C002C73D0002D71D00468DF
:10535000A46914F4004F6ED190F84040012C6CD039
:10536000984617460E460446012380F8403009F05F
:1053700097F9212384F84130402384F842300023F8
:1053800063640A9B636265852D4BE3622D4B636307
:10539000638D9BB2FF2B17D9FF2323854FF08079B4
:1053A00001901923009343463A4631462046FEF7C2
:1053B000A0FD70B1636C042B4FF0000384F8403003
:1053C0000CBF0120032031E0638D23854FF000796D
:1053D000E6E7A36B1C4ADA63A36B1C4ADA64A36B8F
:1053E00000251D64A36B1D652268238D28320A9950
:1053F000A06B08F0D6FC94F8282000954B46314667
:105400002046FEF760FC638D228D9B1A9BB263855C
:1054100084F8405011212046FEF770FC2268136882
:1054200043F480431360284600E0022003B0BDE847
:10543000F0830120FAE70220F8E70220F6E700BF38
:105440000000FFFFF9610008D7400008D3620008A0
:105450002DE9F04383B0BDF82C5090F84140E4B200
:10546000202C73D10A9C002C74D0002D72D00468BB
:10547000A46914F4004F6FD190F84040012C6DD016
:10548000984617460E460446012380F8403009F03E
:1054900007F9222384F84130402384F84230002366
:1054A00063640A9B636265852D4BE3622D4B6363E6
:1054B000638D9BB2FF2B17D9FF2323854FF0807993
:1054C00001901923009343463A4631462046FEF7A1
:1054D00051FD70B1636C042B4FF0000384F8403031
:1054E0000CBF0120032032E0638D23854FF000794B
:1054F000E6E7E36B1C4ADA63E36B1C4ADA64E36BAE
:1055000000251D64E36B1D652168238D0A9A2431F3
:10551000E06B08F046FC94F82820154B00934B46AE
:1055200031462046FEF7CFFB638D228D9B1A9BB23E
:10553000638584F840502268136843F40043136085
:1055400011212046FEF7DAFB284600E0022003B0D6
:10555000BDE8F0830120FAE70220F8E70220F6E731
:105560000000FFFFF961000825410008D362000830
:10557000002400802DE9F04385B00024039490F8C6
:105580004160F6B2202E40F08D800468A46914F4C6
:10559000004F40F08B8090F84040012C00F0888054
:1055A0001D4617460446012380F84030242380F826
:1055B000413000234364C1F3090343F42059DFF869
:1055C000008143EA08081AE09B6913F0100F3FD0EE
:1055D00000962B46002220212046FEF766FC00287C
:1055E0006AD123681022DA6123682022DA61039BE2
:1055F0005A1C0392BB423CD0039BBB424AD2E36895
:10560000012B14BF4A46424623685A6009F048F805
:10561000064623689A6912F0200FD5D19A6912F0D4
:10562000100FD1D194F84110C9B2A029CCD0B5F156
:10563000FF3FEFD025B109F033F8801BA842E8D92D
:10564000202384F84130002384F8403003202AE0EE
:1056500000962B46002220212046FEF726FC48BB60
:1056600022682023D36184F84130002084F8400070
:1056700019E02268536843F48043536000962B4638
:10568000002220212046FEF710FCB8B92368202212
:10569000DA61B1E7202384F84130002384F84030F8
:1056A000032000E0022005B0BDE8F0830220FAE705
:1056B0000220F8E70320F6E70320F4E70320F2E7EF
:1056C0000020000230B583B090F84140E4B2202CB5
:1056D00035D190F84040012C34D0012480F840406E
:1056E000212480F84140102480F842400024446482
:1056F00042624385069BC362134B4363438D9BB257
:10570000FF2B18D9FF2303854FF080730446026BEB
:10571000112A0E4808BF002094F828200090204647
:10572000FEF7D1FA002584F8405001212046FEF70B
:10573000E5FA284604E0438D0385C36AE6E70220C4
:1057400003B030BD0220FBE7856000080020008028
:1057500030B583B090F84140E4B2202C35D190F8B8
:105760004040012C34D0012480F84040222480F8AD
:105770004140102480F84240002444644262438542
:10578000069BC362134B4363438D9BB2FF2B18D917
:10579000FF2303854FF080730446026B122A0E48E4
:1057A00008BF002094F8282000902046FEF78BFACE
:1057B000002584F8405002212046FEF79FFA284633
:1057C00004E0438D0385C36AE6E7022003B030BDE1
:1057D0000220FBE78560000800240080F8B590F8FF
:1057E000414004F02804282C01D00120F8BD0029F4
:1057F0003DD0002A3BD01F4616460C4605460521E3
:10580000FEF7B6FA95F84030012B32D0012385F827
:10581000403095F84130DBB22A2B23D0292385F87C
:105820004130202385F8423000236B642A68536896
:1058300023F4004353606C626E856B8D2B85EF62A1
:105840000D4B6B632B689A6912F4803F01D00822DC
:10585000DA61002485F8404005212846FEF74EFA1B
:105860002046C3E702212846FEF782FAD6E7012048
:10587000BCE70220BAE700BF395D0008F8B590F830
:10588000414004F02804282C01D00120F8BD002953
:105890003DD0002A3BD01F4616460C460546062141
:1058A000FEF766FA95F84030012B32D0012385F8D7
:1058B000403095F84130DBB2292B23D02A2385F8DC
:1058C0004130202385F8423000236B642A685368F6
:1058D00023F4004353606C626E856B8D2B85EF6201
:1058E0000D4B6B632B689A6912F4803F01D108223B
:1058F000DA61002485F8404006212846FEF7FEF9CB
:105900002046C3E701212846FEF732FAD6E70120F8
:10591000BCE70220BAE700BF395D000808B590F87F
:105920004130DBB2202B01D0022008BD282380F8B3
:105930004130034B43630421FEF7E0F90020F4E714
:10594000395D000890F84130DBB2282B01D00220ED
:10595000704710B590F8412090F8423002F00302F1
:1059600013430363202380F84130002480F8424031
:1059700044630421FEF7FCF9204610BD90F8423044
:10598000DBB2102B01D00120704790F84030012B82
:1059900023D070B582B00D460446012680F84060E1
:1059A0000221FEF7E5F931462046FEF7E1F96023D2
:1059B00084F841300A4B00934FF000733246294679
:1059C0002046FEF780F9002584F840501221204639
:1059D000FEF794F9284602B070BD0220704700BF60
:1059E0000040008008B5036899691A68436B03B1E9
:1059F000984708BD7047704738B50446002380F8C3
:105A0000423090F84130DBB2212B0FD0202380F8B8
:105A1000413012230363002545630221FEF7A8F9F4
:105A200084F840502046FFF7E6FF38BD202380F879
:105A3000413011230363002545630121FEF798F9E6
:105A400084F840502046FFF7D5FFEEE770477047D7
:105A500010B50446002380F8423090F84130DBB2A4
:105A6000292B05D090F84130DBB22A2B0FD010BD86
:105A7000282380F84130212303630121FEF778F9C0
:105A8000002384F840302046FFF7E0FFEFE72823AB
:105A900080F84130222303630221FEF769F90023D5
:105AA00084F840302046FFF7D2FFE0E770477047A8
:105AB00010B50446164BC36200230363202280F80E
:105AC000412080F84230436311F0040F11D0036885
:105AD0005A6A436A591C41621A70038D4BB1013BEB
